:020000040800F2
:100000006F00C009000000000000000000000000B8
:1000100000000000000000000000000000000000E0
:1000200000000000000000000000000000000000D0
:1000300000000000000000000000000000000000C0
:1000400000000000000000000000000000000000B0
:1000500000000000000000000000000000000000A0
:100060000000000000000000000000000000000090
:100070000000000000000000000000000000000080
:1000800000000000000000000000000078040000F4
:100090000000000000000000C8030000371100202D
:1000A000130101809302000093E2320073905230FA
:1000B0009302C00B739012347300203013000000C1
:1000C000371502401305850183250500B75300004D
:1000D00093835383B3E575002320B50037150240A1
:1000E0001305C5018325050093E515002320B50000
:1000F000371501401305054083250500B70301F0BE
:100100009383F3FFB3F57500B703B408938303003B
:10011000B3E575002320B500371501401305C54030
:100120008325050093030004B3E575002320B00088
:10013000374501401305858083250500930310345E
:10014000B3E575002320B500374501401305C58090
:1001500083250500B72300009383C300B3E5750032
:100160002320B50037350140130585C2B7250000AF
:100170009385F5F32320B500373501401305C5C23B
:100180009305703E2320B500373501401305C5C0E7
:100190008325050093031000B3E575002320B50007
:1001A00037350140130505C083250500930340083A
:1001B000B3E575002320B50037350140130545C16F
:1001C0008325050093031000B3E575002320B500D7
:1001D00037350140130505C1832505009303A0FFB2
:1001E000B3F575002320B50037350140130505C070
:1001F0008325050093E515002320B5003705004051
:100200001305850083250500B74300009383030091
:10021000B3E575002320B50037050040130505023E
:100220008325050093031000B3E575002320B50076
:10023000370500401305C5008325050093E515002B
:100240002320B5003705004013050501832505006F
:100250009303E0FFB3F575002320B5003705004098
:1002600013058502930500002320B50037050040E3
:100270001305C5029305F0FF2320B50037050040A4
:10028000130505008325050093E515002320B5001F
:1002900037E500E013058504832505009303000876
:1002A000B3E575002320B50037E500E013054510E0
:1002B0008325050093038004B3E575002320B50072
:1002C0009302800873900230370500201305C500A3
:1002D000232005001305803A03040500630C040283
:1002E000EF008003130515006FF01FFF3705004076
:1002F00013054502832505009303000023207500A4
:1003000037050020130505012320B50093030000E5
:10031000232075006F000000130101FF232011004E
:10032000232271002324A1002326B1003745014078
:10033000130505808325050093F50508E38E05FC6C
:1003400093030400374501401305458023007500E1
:1003500037450140130505808325050093F5050405
:10036000E38805FE8325C100032581008323410026
:10037000832001001301010167800000130181FF48
:10038000232011002322610037831E00130303483A
:100390001303F3FFE31E03FE032341008320010048
:1003A000130181006780000053414A4545562053A0
:1003B000414E4B4152414E20434833325630303348
:1003C00020554152540D0A00130141FC232CF10227
:1003D000232AE1022328D1022326C1022324B102C9
:1003E0002322A10223209102232E8100232C7100BD
:1003F000232A6100232851002326410023243100B1
:100400002322210023201100370500401305050198
:10041000832505009303E0FFB3F575002320B500A5
:10042000370500201305C5008325050093851500B9
:100430002320B50083200100032141008321810096
:100440000322C1008322010103234101832381018F
:100450000324C10183240102032541028325810273
:100460000326C10283260103032741038327810357
:100470001301C10373002030130141FC232CF1024E
:10048000232AE1022328D1022326C1022324B10218
:100490002322A10223209102232E8100232C71000C
:1004A000232A610023285100232641002324310000
:1004B000232221002320110037350140130505C1F7
:1004C000832505009303E0FFB3F575002320B500F5
:1004D00037050040130545028325050093030000FE
:1004E00023207500370500201305C5008323050070
:1004F000370401001304F4FF638C0302130340006C
:1005000083033500EF0040331305F5FF1303F3FFBA
:10051000E31803FE1304D000EFF01FE01304A00063
:10052000EFF09FDFB38585009383F3FFE39C03FE29
:1005300037050020130505012320B50037050020ED
:100540001305C50023200500EF00C00CEF00800458
:100550008320010003214100832181000322C10087
:100560008322010103234101832381010324C1016B
:100570008324010203254102832581020326C1024F
:100580008326010303274103832781031301C1034A
:10059000730020301301C1FE232811002326B1006F
:1005A0002324A1002322810023206100370500209D
:1005B00013050501130300009307A00003040500C1
:1005C0001305150013031300EFF01FD5E318F3FE16
:1005D00013040002EFF05FD413048004EFF0DFD3C4
:1005E0001304A005EFF05FD31304D000EFF0DFD2C7
:1005F0001304A000EFF05FD20323010003244100A5
:10060000032581008325C1008320010113014101DD
:1006100067800000130101FE232E1100232CF1003E
:10062000232AB100232881002326710023245100AE
:1006300023224100232061001302000093020000E6
:100640009303000013040000930700003705002007
:100650001305050103220500B7D39A3B938303A03A
:1006600033047240B3327200639802001302040034
:10067000938717006FF0DFFE93870703370500208D
:10068000130505012300F50093070000B7E3F50506
:100690009383031033047240B332720063980200F4
:1006A00013020400938717006FF0DFFE93870703A0
:1006B000130515002300F50093070000B793980079
:1006C0009383036833047240B3327200639802006C
:1006D00013020400938717006FF0DFFE9387070370
:1006E000130515002300F50093070000B7430F0022
:1006F0009383032433047240B33272006398020080
:1007000013020400938717006FF0DFFE938707033F
:10071000130515002300F50093070000B7830100BF
:100720009383036A33047240B33272006398020009
:1007300013020400938717006FF0DFFE938707030F
:10074000130515002300F50093070000B7230000F0
:100750009383037133047240B332720063980200D2
:1007600013020400938717006FF0DFFE93870703DF
:10077000130515002300F500930700009303803E46
:1007800033047240B3327200639802001302040013
:10079000938717006FF0DFFE93870703130515009B
:1007A0002300F500930700009303400633047240D2
:1007B000B33272006398020013020400938717009B
:1007C0006FF0DFFE93870703130515002300F50084
:1007D000930700009303A00033047240B332720009
:1007E0006398020013020400938717006FF0DFFE86
:1007F00093870703130515002300F50093070000F6
:100800009307020093870703130515002300F500E3
:100810000323010003224100832281008323C100BE
:100820000324010183254101832781018320C10124
:1008300013010102678000001301C1FF2320110092
:100840009386030093F6060F93D6460013A7A600DF
:10085000630A070093E6060313840600EFF0DFAB9C
:100860006F0000019386760313840600EFF0DFAA81
:100870009386030093F6F60013A7A600630A070009
:1008800093E6060313840600EFF01FA96F00000132
:100890009386760313840600EFF01FA883200100DF
:0808A000130141006780000014
:00000001FF
